{
  "_format": "hh-sol-artifact-1",
  "contractName": "TimelockControllerUpgradeable",
  "sourceName": "@openzeppelin/contracts-upgradeable/governance/TimelockControllerUpgradeable.sol",
  "abi": [
    {
      "inputs": [],
      "name": "AccessControlBadConfirmation",
      "type": "error"
    },
    {
      "inputs": [
        {
          "internalType": "address",
          "name": "account",
          "type": "address"
        },
        {
          "internalType": "bytes32",
          "name": "neededRole",
          "type": "bytes32"
        }
      ],
      "name": "AccessControlUnauthorizedAccount",
      "type": "error"
    },
    {
      "inputs": [],
      "name": "FailedCall",
      "type": "error"
    },
    {
      "inputs": [],
      "name": "InvalidInitialization",
      "type": "error"
    },
    {
      "inputs": [],
      "name": "NotInitializing",
      "type": "error"
    },
    {
      "inputs": [
        {
          "internalType": "uint256",
          "name": "delay",
          "type": "uint256"
        },
        {
          "internalType": "uint256",
          "name": "minDelay",
          "type": "uint256"
        }
      ],
      "name": "TimelockInsufficientDelay",
      "type": "error"
    },
    {
      "inputs": [
        {
          "internalType": "uint256",
          "name": "targets",
          "type": "uint256"
        },
        {
          "internalType": "uint256",
          "name": "payloads",
          "type": "uint256"
        },
        {
          "internalType": "uint256",
          "name": "values",
          "type": "uint256"
        }
      ],
      "name": "TimelockInvalidOperationLength",
      "type": "error"
    },
    {
      "inputs": [
        {
          "internalType": "address",
          "name": "caller",
          "type": "address"
        }
      ],
      "name": "TimelockUnauthorizedCaller",
      "type": "error"
    },
    {
      "inputs": [
        {
          "internalType": "bytes32",
          "name": "predecessorId",
          "type": "bytes32"
        }
      ],
      "name": "TimelockUnexecutedPredecessor",
      "type": "error"
    },
    {
      "inputs": [
        {
          "internalType": "bytes32",
          "name": "operationId",
          "type": "bytes32"
        },
        {
          "internalType": "bytes32",
          "name": "expectedStates",
          "type": "bytes32"
        }
      ],
      "name": "TimelockUnexpectedOperationState",
      "type": "error"
    },
    {
      "anonymous": false,
      "inputs": [
        {
          "indexed": true,
          "internalType": "bytes32",
          "name": "id",
          "type": "bytes32"
        },
        {
          "indexed": true,
          "internalType": "uint256",
          "name": "index",
          "type": "uint256"
        },
        {
          "indexed": false,
          "internalType": "address",
          "name": "target",
          "type": "address"
        },
        {
          "indexed": false,
          "internalType": "uint256",
          "name": "value",
          "type": "uint256"
        },
        {
          "indexed": false,
          "internalType": "bytes",
          "name": "data",
          "type": "bytes"
        }
      ],
      "name": "CallExecuted",
      "type": "event"
    },
    {
      "anonymous": false,
      "inputs": [
        {
          "indexed": true,
          "internalType": "bytes32",
          "name": "id",
          "type": "bytes32"
        },
        {
          "indexed": false,
          "internalType": "bytes32",
          "name": "salt",
          "type": "bytes32"
        }
      ],
      "name": "CallSalt",
      "type": "event"
    },
    {
      "anonymous": false,
      "inputs": [
        {
          "indexed": true,
          "internalType": "bytes32",
          "name": "id",
          "type": "bytes32"
        },
        {
          "indexed": true,
          "internalType": "uint256",
          "name": "index",
          "type": "uint256"
        },
        {
          "indexed": false,
          "internalType": "address",
          "name": "target",
          "type": "address"
        },
        {
          "indexed": false,
          "internalType": "uint256",
          "name": "value",
          "type": "uint256"
        },
        {
          "indexed": false,
          "internalType": "bytes",
          "name": "data",
          "type": "bytes"
        },
        {
          "indexed": false,
          "internalType": "bytes32",
          "name": "predecessor",
          "type": "bytes32"
        },
        {
          "indexed": false,
          "internalType": "uint256",
          "name": "delay",
          "type": "uint256"
        }
      ],
      "name": "CallScheduled",
      "type": "event"
    },
    {
      "anonymous": false,
      "inputs": [
        {
          "indexed": true,
          "internalType": "bytes32",
          "name": "id",
          "type": "bytes32"
        }
      ],
      "name": "Cancelled",
      "type": "event"
    },
    {
      "anonymous": false,
      "inputs": [
        {
          "indexed": false,
          "internalType": "uint64",
          "name": "version",
          "type": "uint64"
        }
      ],
      "name": "Initialized",
      "type": "event"
    },
    {
      "anonymous": false,
      "inputs": [
        {
          "indexed": false,
          "internalType": "uint256",
          "name": "oldDuration",
          "type": "uint256"
        },
        {
          "indexed": false,
          "internalType": "uint256",
          "name": "newDuration",
          "type": "uint256"
        }
      ],
      "name": "MinDelayChange",
      "type": "event"
    },
    {
      "anonymous": false,
      "inputs": [
        {
          "indexed": true,
          "internalType": "bytes32",
          "name": "role",
          "type": "bytes32"
        },
        {
          "indexed": true,
          "internalType": "bytes32",
          "name": "previousAdminRole",
          "type": "bytes32"
        },
        {
          "indexed": true,
          "internalType": "bytes32",
          "name": "newAdminRole",
          "type": "bytes32"
        }
      ],
      "name": "RoleAdminChanged",
      "type": "event"
    },
    {
      "anonymous": false,
      "inputs": [
        {
          "indexed": true,
          "internalType": "bytes32",
          "name": "role",
          "type": "bytes32"
        },
        {
          "indexed": true,
          "internalType": "address",
          "name": "account",
          "type": "address"
        },
        {
          "indexed": true,
          "internalType": "address",
          "name": "sender",
          "type": "address"
        }
      ],
      "name": "RoleGranted",
      "type": "event"
    },
    {
      "anonymous": false,
      "inputs": [
        {
          "indexed": true,
          "internalType": "bytes32",
          "name": "role",
          "type": "bytes32"
        },
        {
          "indexed": true,
          "internalType": "address",
          "name": "account",
          "type": "address"
        },
        {
          "indexed": true,
          "internalType": "address",
          "name": "sender",
          "type": "address"
        }
      ],
      "name": "RoleRevoked",
      "type": "event"
    },
    {
      "inputs": [],
      "name": "CANCELLER_ROLE",
      "outputs": [
        {
          "internalType": "bytes32",
          "name": "",
          "type": "bytes32"
        }
      ],
      "stateMutability": "view",
      "type": "function"
    },
    {
      "inputs": [],
      "name": "DEFAULT_ADMIN_ROLE",
      "outputs": [
        {
          "internalType": "bytes32",
          "name": "",
          "type": "bytes32"
        }
      ],
      "stateMutability": "view",
      "type": "function"
    },
    {
      "inputs": [],
      "name": "EXECUTOR_ROLE",
      "outputs": [
        {
          "internalType": "bytes32",
          "name": "",
          "type": "bytes32"
        }
      ],
      "stateMutability": "view",
      "type": "function"
    },
    {
      "inputs": [],
      "name": "PROPOSER_ROLE",
      "outputs": [
        {
          "internalType": "bytes32",
          "name": "",
          "type": "bytes32"
        }
      ],
      "stateMutability": "view",
      "type": "function"
    },
    {
      "inputs": [
        {
          "internalType": "bytes32",
          "name": "id",
          "type": "bytes32"
        }
      ],
      "name": "cancel",
      "outputs": [],
      "stateMutability": "nonpayable",
      "type": "function"
    },
    {
      "inputs": [
        {
          "internalType": "address",
          "name": "target",
          "type": "address"
        },
        {
          "internalType": "uint256",
          "name": "value",
          "type": "uint256"
        },
        {
          "internalType": "bytes",
          "name": "payload",
          "type": "bytes"
        },
        {
          "internalType": "bytes32",
          "name": "predecessor",
          "type": "bytes32"
        },
        {
          "internalType": "bytes32",
          "name": "salt",
          "type": "bytes32"
        }
      ],
      "name": "execute",
      "outputs": [],
      "stateMutability": "payable",
      "type": "function"
    },
    {
      "inputs": [
        {
          "internalType": "address[]",
          "name": "targets",
          "type": "address[]"
        },
        {
          "internalType": "uint256[]",
          "name": "values",
          "type": "uint256[]"
        },
        {
          "internalType": "bytes[]",
          "name": "payloads",
          "type": "bytes[]"
        },
        {
          "internalType": "bytes32",
          "name": "predecessor",
          "type": "bytes32"
        },
        {
          "internalType": "bytes32",
          "name": "salt",
          "type": "bytes32"
        }
      ],
      "name": "executeBatch",
      "outputs": [],
      "stateMutability": "payable",
      "type": "function"
    },
    {
      "inputs": [],
      "name": "getMinDelay",
      "outputs": [
        {
          "internalType": "uint256",
          "name": "",
          "type": "uint256"
        }
      ],
      "stateMutability": "view",
      "type": "function"
    },
    {
      "inputs": [
        {
          "internalType": "bytes32",
          "name": "id",
          "type": "bytes32"
        }
      ],
      "name": "getOperationState",
      "outputs": [
        {
          "internalType": "enum TimelockControllerUpgradeable.OperationState",
          "name": "",
          "type": "uint8"
        }
      ],
      "stateMutability": "view",
      "type": "function"
    },
    {
      "inputs": [
        {
          "internalType": "bytes32",
          "name": "role",
          "type": "bytes32"
        }
      ],
      "name": "getRoleAdmin",
      "outputs": [
        {
          "internalType": "bytes32",
          "name": "",
          "type": "bytes32"
        }
      ],
      "stateMutability": "view",
      "type": "function"
    },
    {
      "inputs": [
        {
          "internalType": "bytes32",
          "name": "id",
          "type": "bytes32"
        }
      ],
      "name": "getTimestamp",
      "outputs": [
        {
          "internalType": "uint256",
          "name": "",
          "type": "uint256"
        }
      ],
      "stateMutability": "view",
      "type": "function"
    },
    {
      "inputs": [
        {
          "internalType": "bytes32",
          "name": "role",
          "type": "bytes32"
        },
        {
          "internalType": "address",
          "name": "account",
          "type": "address"
        }
      ],
      "name": "grantRole",
      "outputs": [],
      "stateMutability": "nonpayable",
      "type": "function"
    },
    {
      "inputs": [
        {
          "internalType": "bytes32",
          "name": "role",
          "type": "bytes32"
        },
        {
          "internalType": "address",
          "name": "account",
          "type": "address"
        }
      ],
      "name": "hasRole",
      "outputs": [
        {
          "internalType": "bool",
          "name": "",
          "type": "bool"
        }
      ],
      "stateMutability": "view",
      "type": "function"
    },
    {
      "inputs": [
        {
          "internalType": "address",
          "name": "target",
          "type": "address"
        },
        {
          "internalType": "uint256",
          "name": "value",
          "type": "uint256"
        },
        {
          "internalType": "bytes",
          "name": "data",
          "type": "bytes"
        },
        {
          "internalType": "bytes32",
          "name": "predecessor",
          "type": "bytes32"
        },
        {
          "internalType": "bytes32",
          "name": "salt",
          "type": "bytes32"
        }
      ],
      "name": "hashOperation",
      "outputs": [
        {
          "internalType": "bytes32",
          "name": "",
          "type": "bytes32"
        }
      ],
      "stateMutability": "pure",
      "type": "function"
    },
    {
      "inputs": [
        {
          "internalType": "address[]",
          "name": "targets",
          "type": "address[]"
        },
        {
          "internalType": "uint256[]",
          "name": "values",
          "type": "uint256[]"
        },
        {
          "internalType": "bytes[]",
          "name": "payloads",
          "type": "bytes[]"
        },
        {
          "internalType": "bytes32",
          "name": "predecessor",
          "type": "bytes32"
        },
        {
          "internalType": "bytes32",
          "name": "salt",
          "type": "bytes32"
        }
      ],
      "name": "hashOperationBatch",
      "outputs": [
        {
          "internalType": "bytes32",
          "name": "",
          "type": "bytes32"
        }
      ],
      "stateMutability": "pure",
      "type": "function"
    },
    {
      "inputs": [
        {
          "internalType": "uint256",
          "name": "minDelay",
          "type": "uint256"
        },
        {
          "internalType": "address[]",
          "name": "proposers",
          "type": "address[]"
        },
        {
          "internalType": "address[]",
          "name": "executors",
          "type": "address[]"
        },
        {
          "internalType": "address",
          "name": "admin",
          "type": "address"
        }
      ],
      "name": "initialize",
      "outputs": [],
      "stateMutability": "nonpayable",
      "type": "function"
    },
    {
      "inputs": [
        {
          "internalType": "bytes32",
          "name": "id",
          "type": "bytes32"
        }
      ],
      "name": "isOperation",
      "outputs": [
        {
          "internalType": "bool",
          "name": "",
          "type": "bool"
        }
      ],
      "stateMutability": "view",
      "type": "function"
    },
    {
      "inputs": [
        {
          "internalType": "bytes32",
          "name": "id",
          "type": "bytes32"
        }
      ],
      "name": "isOperationDone",
      "outputs": [
        {
          "internalType": "bool",
          "name": "",
          "type": "bool"
        }
      ],
      "stateMutability": "view",
      "type": "function"
    },
    {
      "inputs": [
        {
          "internalType": "bytes32",
          "name": "id",
          "type": "bytes32"
        }
      ],
      "name": "isOperationPending",
      "outputs": [
        {
          "internalType": "bool",
          "name": "",
          "type": "bool"
        }
      ],
      "stateMutability": "view",
      "type": "function"
    },
    {
      "inputs": [
        {
          "internalType": "bytes32",
          "name": "id",
          "type": "bytes32"
        }
      ],
      "name": "isOperationReady",
      "outputs": [
        {
          "internalType": "bool",
          "name": "",
          "type": "bool"
        }
      ],
      "stateMutability": "view",
      "type": "function"
    },
    {
      "inputs": [
        {
          "internalType": "address",
          "name": "",
          "type": "address"
        },
        {
          "internalType": "address",
          "name": "",
          "type": "address"
        },
        {
          "internalType": "uint256[]",
          "name": "",
          "type": "uint256[]"
        },
        {
          "internalType": "uint256[]",
          "name": "",
          "type": "uint256[]"
        },
        {
          "internalType": "bytes",
          "name": "",
          "type": "bytes"
        }
      ],
      "name": "onERC1155BatchReceived",
      "outputs": [
        {
          "internalType": "bytes4",
          "name": "",
          "type": "bytes4"
        }
      ],
      "stateMutability": "nonpayable",
      "type": "function"
    },
    {
      "inputs": [
        {
          "internalType": "address",
          "name": "",
          "type": "address"
        },
        {
          "internalType": "address",
          "name": "",
          "type": "address"
        },
        {
          "internalType": "uint256",
          "name": "",
          "type": "uint256"
        },
        {
          "internalType": "uint256",
          "name": "",
          "type": "uint256"
        },
        {
          "internalType": "bytes",
          "name": "",
          "type": "bytes"
        }
      ],
      "name": "onERC1155Received",
      "outputs": [
        {
          "internalType": "bytes4",
          "name": "",
          "type": "bytes4"
        }
      ],
      "stateMutability": "nonpayable",
      "type": "function"
    },
    {
      "inputs": [
        {
          "internalType": "address",
          "name": "",
          "type": "address"
        },
        {
          "internalType": "address",
          "name": "",
          "type": "address"
        },
        {
          "internalType": "uint256",
          "name": "",
          "type": "uint256"
        },
        {
          "internalType": "bytes",
          "name": "",
          "type": "bytes"
        }
      ],
      "name": "onERC721Received",
      "outputs": [
        {
          "internalType": "bytes4",
          "name": "",
          "type": "bytes4"
        }
      ],
      "stateMutability": "nonpayable",
      "type": "function"
    },
    {
      "inputs": [
        {
          "internalType": "bytes32",
          "name": "role",
          "type": "bytes32"
        },
        {
          "internalType": "address",
          "name": "callerConfirmation",
          "type": "address"
        }
      ],
      "name": "renounceRole",
      "outputs": [],
      "stateMutability": "nonpayable",
      "type": "function"
    },
    {
      "inputs": [
        {
          "internalType": "bytes32",
          "name": "role",
          "type": "bytes32"
        },
        {
          "internalType": "address",
          "name": "account",
          "type": "address"
        }
      ],
      "name": "revokeRole",
      "outputs": [],
      "stateMutability": "nonpayable",
      "type": "function"
    },
    {
      "inputs": [
        {
          "internalType": "address",
          "name": "target",
          "type": "address"
        },
        {
          "internalType": "uint256",
          "name": "value",
          "type": "uint256"
        },
        {
          "internalType": "bytes",
          "name": "data",
          "type": "bytes"
        },
        {
          "internalType": "bytes32",
          "name": "predecessor",
          "type": "bytes32"
        },
        {
          "internalType": "bytes32",
          "name": "salt",
          "type": "bytes32"
        },
        {
          "internalType": "uint256",
          "name": "delay",
          "type": "uint256"
        }
      ],
      "name": "schedule",
      "outputs": [],
      "stateMutability": "nonpayable",
      "type": "function"
    },
    {
      "inputs": [
        {
          "internalType": "address[]",
          "name": "targets",
          "type": "address[]"
        },
        {
          "internalType": "uint256[]",
          "name": "values",
          "type": "uint256[]"
        },
        {
          "internalType": "bytes[]",
          "name": "payloads",
          "type": "bytes[]"
        },
        {
          "internalType": "bytes32",
          "name": "predecessor",
          "type": "bytes32"
        },
        {
          "internalType": "bytes32",
          "name": "salt",
          "type": "bytes32"
        },
        {
          "internalType": "uint256",
          "name": "delay",
          "type": "uint256"
        }
      ],
      "name": "scheduleBatch",
      "outputs": [],
      "stateMutability": "nonpayable",
      "type": "function"
    },
    {
      "inputs": [
        {
          "internalType": "bytes4",
          "name": "interfaceId",
          "type": "bytes4"
        }
      ],
      "name": "supportsInterface",
      "outputs": [
        {
          "internalType": "bool",
          "name": "",
          "type": "bool"
        }
      ],
      "stateMutability": "view",
      "type": "function"
    },
    {
      "inputs": [
        {
          "internalType": "uint256",
          "name": "newDelay",
          "type": "uint256"
        }
      ],
      "name": "updateDelay",
      "outputs": [],
      "stateMutability": "nonpayable",
      "type": "function"
    },
    {
      "stateMutability": "payable",
      "type": "receive"
    }
  ],
  "bytecode": "0x6080604052348015600e575f5ffd5b506125568061001c5f395ff3fe6080604052600436106101bd575f3560e01c80638065657f116100f2578063bc197c8111610092578063d547741f11610062578063d547741f14610649578063e38335e514610668578063f23a6e611461067b578063f27a0c92146106bf575f5ffd5b8063bc197c811461057d578063c4c4c7b3146105c1578063c4d252f5146105e0578063d45c4435146105ff575f5ffd5b806391d14854116100cd57806391d14854146104a8578063a217fddf14610518578063b08e51c01461052b578063b1c5f4271461055e575f5ffd5b80638065657f146104375780638f2a0bb0146104565780638f61f4f514610475575f5ffd5b80632ab0f5291161015d57806336568abe1161013857806336568abe146103ae578063584b153e146103cd57806364d62353146103ec5780637958004c1461040b575f5ffd5b80632ab0f529146103515780632f2ff15d1461037057806331d507501461038f575f5ffd5b8063134008d311610198578063134008d31461025e57806313bc9f2014610271578063150b7a0214610290578063248a9ca314610304575f5ffd5b806301d5062a146101c857806301ffc9a7146101e957806307bd02651461021d575f5ffd5b366101c457005b5f5ffd5b3480156101d3575f5ffd5b506101e76101e2366004611a8e565b6106f2565b005b3480156101f4575f5ffd5b50610208610203366004611afd565b6107c6565b60405190151581526020015b60405180910390f35b348015610228575f5ffd5b506102507fd8aa0f3194971a2a116679f7c2090f6939c8d4e01a2a8d7e41d55e5351469e6381565b604051908152602001610214565b6101e761026c366004611b3c565b6107d6565b34801561027c575f5ffd5b5061020861028b366004611ba3565b6108cb565b34801561029b575f5ffd5b506102d36102aa366004611cc0565b7f150b7a0200000000000000000000000000000000000000000000000000000000949350505050565b6040517fffffffff000000000000000000000000000000000000000000000000000000009091168152602001610214565b34801561030f575f5ffd5b5061025061031e366004611ba3565b5f9081527f02dd7bc7dec4dceedda775e58dd541e08a116c6c53815c0bd028192f7b626800602052604090206001015490565b34801561035c575f5ffd5b5061020861036b366004611ba3565b6108f0565b34801561037b575f5ffd5b506101e761038a366004611d24565b6108f8565b34801561039a575f5ffd5b506102086103a9366004611ba3565b610941565b3480156103b9575f5ffd5b506101e76103c8366004611d24565b610965565b3480156103d8575f5ffd5b506102086103e7366004611ba3565b6109c3565b3480156103f7575f5ffd5b506101e7610406366004611ba3565b610a08565b348015610416575f5ffd5b5061042a610425366004611ba3565b610ac5565b6040516102149190611d7b565b348015610442575f5ffd5b50610250610451366004611b3c565b610b2c565b348015610461575f5ffd5b506101e7610470366004611dfb565b610b6a565b348015610480575f5ffd5b506102507fb09aa5aeb3702cfd50b6b62bc4532604938f21248a27a1d5ca736082b6819cc181565b3480156104b3575f5ffd5b506102086104c2366004611d24565b5f9182527f02dd7bc7dec4dceedda775e58dd541e08a116c6c53815c0bd028192f7b6268006020908152604080842073ffffffffffffffffffffffffffffffffffffffff93909316845291905290205460ff1690565b348015610523575f5ffd5b506102505f81565b348015610536575f5ffd5b506102507ffd643c72710c63c0180259aba6b2d05451e3591a24e58b62239378085726f78381565b348015610569575f5ffd5b50610250610578366004611eb0565b610d0c565b348015610588575f5ffd5b506102d3610597366004611fea565b7fbc197c810000000000000000000000000000000000000000000000000000000095945050505050565b3480156105cc575f5ffd5b506101e76105db3660046120fb565b610d50565b3480156105eb575f5ffd5b506101e76105fa366004611ba3565b610ed3565b34801561060a575f5ffd5b50610250610619366004611ba3565b5f9081527f9a37c2aa9d186a0969ff8a8267bf4e07e864c2f2768f5040949e28a624fb3600602052604090205490565b348015610654575f5ffd5b506101e7610663366004611d24565b610fb8565b6101e7610676366004611eb0565b610ffb565b348015610686575f5ffd5b506102d3610695366004612179565b7ff23a6e610000000000000000000000000000000000000000000000000000000095945050505050565b3480156106ca575f5ffd5b507f9a37c2aa9d186a0969ff8a8267bf4e07e864c2f2768f5040949e28a624fb360154610250565b7fb09aa5aeb3702cfd50b6b62bc4532604938f21248a27a1d5ca736082b6819cc161071c816111d5565b5f61072b898989898989610b2c565b905061073781846111e2565b5f817f4cf4410cc57040e44862ef0f45f3dd5a5e02db8eb8add648d4b0e236f1d07dca8b8b8b8b8b8a60405161077296959493929190612214565b60405180910390a383156107bb57807f20fda5fd27a1ea7bf5b9567f143ac5470bb059374a27e8f67cb44f946f6d0387856040516107b291815260200190565b60405180910390a25b505050505050505050565b5f6107d0826112e6565b92915050565b5f80527f52fce5e8a5d0d9e8d1ea29f4525e512e9c27bf92cae50374d497f918ab48f3826020527fdd1864c1ab258d549957f6a4d7e3a5005661df58241dbbc1700fb170ef061546547fd8aa0f3194971a2a116679f7c2090f6939c8d4e01a2a8d7e41d55e5351469e639060ff1661085257610852813361133b565b5f610861888888888888610b2c565b905061086d81856113e5565b6108798888888861144c565b5f817fc2617efa69bab66782fa219543714338489c4e9e178271560a91b82c3f612b588a8a8a8a6040516108b0949392919061225e565b60405180910390a36108c1816114cd565b5050505050505050565b5f60025b6108d883610ac5565b60038111156108e9576108e9611d4e565b1492915050565b5f60036108cf565b5f8281527f02dd7bc7dec4dceedda775e58dd541e08a116c6c53815c0bd028192f7b6268006020526040902060010154610931816111d5565b61093b8383611517565b50505050565b5f8061094c83610ac5565b600381111561095d5761095d611d4e565b141592915050565b73ffffffffffffffffffffffffffffffffffffffff811633146109b4576040517f6697b23200000000000000000000000000000000000000000000000000000000815260040160405180910390fd5b6109be8282611635565b505050565b5f5f6109ce83610ac5565b905060018160038111156109e4576109e4611d4e565b1480610a01575060028160038111156109ff576109ff611d4e565b145b9392505050565b7f9a37c2aa9d186a0969ff8a8267bf4e07e864c2f2768f5040949e28a624fb360033308114610a80576040517fe2850c5900000000000000000000000000000000000000000000000000000000815273ffffffffffffffffffffffffffffffffffffffff821660048201526024015b60405180910390fd5b600182015460408051918252602082018590527f11c24f4ead16507c69ac467fbd5e4eed5fb5c699626d2cc6d66421df253886d5910160405180910390a15060010155565b5f8181527f9a37c2aa9d186a0969ff8a8267bf4e07e864c2f2768f5040949e28a624fb36006020526040812054805f03610b0157505f92915050565b60018103610b125750600392915050565b42811115610b235750600192915050565b50600292915050565b5f868686868686604051602001610b4896959493929190612214565b6040516020818303038152906040528051906020012090509695505050505050565b7fb09aa5aeb3702cfd50b6b62bc4532604938f21248a27a1d5ca736082b6819cc1610b94816111d5565b8887141580610ba35750888514155b15610beb576040517fffb03211000000000000000000000000000000000000000000000000000000008152600481018a90526024810186905260448101889052606401610a77565b5f610bfc8b8b8b8b8b8b8b8b610d0c565b9050610c0881846111e2565b5f5b8a811015610cbd5780827f4cf4410cc57040e44862ef0f45f3dd5a5e02db8eb8add648d4b0e236f1d07dca8e8e85818110610c4757610c4761229d565b9050602002016020810190610c5c91906122ca565b8d8d86818110610c6e57610c6e61229d565b905060200201358c8c87818110610c8757610c8761229d565b9050602002810190610c9991906122e3565b8c8b604051610cad96959493929190612214565b60405180910390a3600101610c0a565b508315610cff57807f20fda5fd27a1ea7bf5b9567f143ac5470bb059374a27e8f67cb44f946f6d038785604051610cf691815260200190565b60405180910390a25b5050505050505050505050565b5f8888888888888888604051602001610d2c989796959493929190612414565b60405160208183030381529060405280519060200120905098975050505050505050565b7ff0c57e16840df040f15088dc2f81fe391c3923bec73e23a9662efc9c229c6a00805468010000000000000000810460ff16159067ffffffffffffffff165f81158015610d9a5750825b90505f8267ffffffffffffffff166001148015610db65750303b155b905081158015610dc4575080155b15610dfb576040517ff92ee8a900000000000000000000000000000000000000000000000000000000815260040160405180910390fd5b84547fffffffffffffffffffffffffffffffffffffffffffffffff00000000000000001660011785558315610e5c5784547fffffffffffffffffffffffffffffffffffffffffffffff00ffffffffffffffff16680100000000000000001785555b610e6889898989611711565b83156107bb5784547fffffffffffffffffffffffffffffffffffffffffffffff00ffffffffffffffff168555604051600181527fc7f505b2f371ae2175ee4913f4499e1f2633a7b5936321eed1cdaeb6115181d29060200160405180910390a1505050505050505050565b7ffd643c72710c63c0180259aba6b2d05451e3591a24e58b62239378085726f783610efd816111d5565b7f9a37c2aa9d186a0969ff8a8267bf4e07e864c2f2768f5040949e28a624fb3600610f27836109c3565b610f7c5782610f366002611725565b610f406001611725565b6040517f5ead8eb50000000000000000000000000000000000000000000000000000000081526004810193909352176024820152604401610a77565b5f838152602082905260408082208290555184917fbaa1eb22f2a492ba1a5fea61b8df4d27c6c8b5f3971e63bb58fa14ff72eedb7091a2505050565b5f8281527f02dd7bc7dec4dceedda775e58dd541e08a116c6c53815c0bd028192f7b6268006020526040902060010154610ff1816111d5565b61093b8383611635565b5f80527f52fce5e8a5d0d9e8d1ea29f4525e512e9c27bf92cae50374d497f918ab48f3826020527fdd1864c1ab258d549957f6a4d7e3a5005661df58241dbbc1700fb170ef061546547fd8aa0f3194971a2a116679f7c2090f6939c8d4e01a2a8d7e41d55e5351469e639060ff1661107757611077813361133b565b87861415806110865750878414155b156110ce576040517fffb03211000000000000000000000000000000000000000000000000000000008152600481018990526024810185905260448101879052606401610a77565b5f6110df8a8a8a8a8a8a8a8a610d0c565b90506110eb81856113e5565b5f5b898110156111bf575f8b8b838181106111085761110861229d565b905060200201602081019061111d91906122ca565b90505f8a8a848181106111325761113261229d565b905060200201359050365f8a8a8681811061114f5761114f61229d565b905060200281019061116191906122e3565b915091506111718484848461144c565b84867fc2617efa69bab66782fa219543714338489c4e9e178271560a91b82c3f612b58868686866040516111a8949392919061225e565b60405180910390a3505050508060010190506110ed565b506111c9816114cd565b50505050505050505050565b6111df813361133b565b50565b7f9a37c2aa9d186a0969ff8a8267bf4e07e864c2f2768f5040949e28a624fb360061120c83610941565b15611256578261121b5f611725565b6040517f5ead8eb500000000000000000000000000000000000000000000000000000000815260048101929092526024820152604401610a77565b5f61127f7f9a37c2aa9d186a0969ff8a8267bf4e07e864c2f2768f5040949e28a624fb36015490565b9050808310156112c5576040517f543366090000000000000000000000000000000000000000000000000000000081526004810184905260248101829052604401610a77565b6112cf83426124d9565b5f9485526020929092525060409092209190915550565b5f7fffffffff0000000000000000000000000000000000000000000000000000000082167f4e2312e00000000000000000000000000000000000000000000000000000000014806107d057506107d082611747565b5f8281527f02dd7bc7dec4dceedda775e58dd541e08a116c6c53815c0bd028192f7b6268006020908152604080832073ffffffffffffffffffffffffffffffffffffffff8516845290915290205460ff166113e1576040517fe2517d3f00000000000000000000000000000000000000000000000000000000815273ffffffffffffffffffffffffffffffffffffffff8216600482015260248101839052604401610a77565b5050565b6113ee826108cb565b6113fd578161121b6002611725565b80158015906114125750611410816108f0565b155b156113e1576040517f90a9a61800000000000000000000000000000000000000000000000000000000815260048101829052602401610a77565b5f5f8573ffffffffffffffffffffffffffffffffffffffff16858585604051611476929190612511565b5f6040518083038185875af1925050503d805f81146114b0576040519150601f19603f3d011682016040523d82523d5f602084013e6114b5565b606091505b50915091506114c482826117dd565b50505050505050565b7f9a37c2aa9d186a0969ff8a8267bf4e07e864c2f2768f5040949e28a624fb36006114f7826108cb565b611506578161121b6002611725565b5f9182526020526040902060019055565b5f8281527f02dd7bc7dec4dceedda775e58dd541e08a116c6c53815c0bd028192f7b6268006020818152604080842073ffffffffffffffffffffffffffffffffffffffff8616855290915282205460ff1661162c575f8481526020828152604080832073ffffffffffffffffffffffffffffffffffffffff87168452909152902080547fffffffffffffffffffffffffffffffffffffffffffffffffffffffffffffff001660011790556115c83390565b73ffffffffffffffffffffffffffffffffffffffff168373ffffffffffffffffffffffffffffffffffffffff16857f2f8788117e7eff1d82e926ec794901d17c78024a50270940304540a733656f0d60405160405180910390a460019150506107d0565b5f9150506107d0565b5f8281527f02dd7bc7dec4dceedda775e58dd541e08a116c6c53815c0bd028192f7b6268006020818152604080842073ffffffffffffffffffffffffffffffffffffffff8616855290915282205460ff161561162c575f8481526020828152604080832073ffffffffffffffffffffffffffffffffffffffff8716808552925280832080547fffffffffffffffffffffffffffffffffffffffffffffffffffffffffffffff0016905551339287917ff6391f5c32d9c69d2a47ea670b442974b53935d1edc7fd64eb21e047a839171b9190a460019150506107d0565b6117196117f9565b61093b84848484611862565b5f81600381111561173857611738611d4e565b600160ff919091161b92915050565b5f7fffffffff0000000000000000000000000000000000000000000000000000000082167f7965db0b0000000000000000000000000000000000000000000000000000000014806107d057507f01ffc9a7000000000000000000000000000000000000000000000000000000007fffffffff000000000000000000000000000000000000000000000000000000008316146107d0565b6060826117f2576117ed826119df565b6107d0565b50806107d0565b7ff0c57e16840df040f15088dc2f81fe391c3923bec73e23a9662efc9c229c6a005468010000000000000000900460ff16611860576040517fd7e6bcf800000000000000000000000000000000000000000000000000000000815260040160405180910390fd5b565b61186a6117f9565b7f9a37c2aa9d186a0969ff8a8267bf4e07e864c2f2768f5040949e28a624fb36006118955f30611517565b5073ffffffffffffffffffffffffffffffffffffffff8216156118be576118bc5f83611517565b505b5f5b845181101561194c5761190c7fb09aa5aeb3702cfd50b6b62bc4532604938f21248a27a1d5ca736082b6819cc18683815181106118ff576118ff61229d565b6020026020010151611517565b506119437ffd643c72710c63c0180259aba6b2d05451e3591a24e58b62239378085726f7838683815181106118ff576118ff61229d565b506001016118c0565b505f5b83518110156119975761198e7fd8aa0f3194971a2a116679f7c2090f6939c8d4e01a2a8d7e41d55e5351469e638583815181106118ff576118ff61229d565b5060010161194f565b5060018101859055604080515f8152602081018790527f11c24f4ead16507c69ac467fbd5e4eed5fb5c699626d2cc6d66421df253886d5910160405180910390a15050505050565b8051156119ef5780518082602001fd5b6040517fd6bda27500000000000000000000000000000000000000000000000000000000815260040160405180910390fd5b803573ffffffffffffffffffffffffffffffffffffffff81168114611a44575f5ffd5b919050565b5f5f83601f840112611a59575f5ffd5b50813567ffffffffffffffff811115611a70575f5ffd5b602083019150836020828501011115611a87575f5ffd5b9250929050565b5f5f5f5f5f5f5f60c0888a031215611aa4575f5ffd5b611aad88611a21565b965060208801359550604088013567ffffffffffffffff811115611acf575f5ffd5b611adb8a828b01611a49565b989b979a50986060810135976080820135975060a09091013595509350505050565b5f60208284031215611b0d575f5ffd5b81357fffffffff0000000000000000000000000000000000000000000000000000000081168114610a01575f5ffd5b5f5f5f5f5f5f60a08789031215611b51575f5ffd5b611b5a87611a21565b955060208701359450604087013567ffffffffffffffff811115611b7c575f5ffd5b611b8889828a01611a49565b979a9699509760608101359660809091013595509350505050565b5f60208284031215611bb3575f5ffd5b5035919050565b7f4e487b71000000000000000000000000000000000000000000000000000000005f52604160045260245ffd5b604051601f82017fffffffffffffffffffffffffffffffffffffffffffffffffffffffffffffffe016810167ffffffffffffffff81118282101715611c2e57611c2e611bba565b604052919050565b5f82601f830112611c45575f5ffd5b813567ffffffffffffffff811115611c5f57611c5f611bba565b611c9060207fffffffffffffffffffffffffffffffffffffffffffffffffffffffffffffffe0601f84011601611be7565b818152846020838601011115611ca4575f5ffd5b816020850160208301375f918101602001919091529392505050565b5f5f5f5f60808587031215611cd3575f5ffd5b611cdc85611a21565b9350611cea60208601611a21565b925060408501359150606085013567ffffffffffffffff811115611d0c575f5ffd5b611d1887828801611c36565b91505092959194509250565b5f5f60408385031215611d35575f5ffd5b82359150611d4560208401611a21565b90509250929050565b7f4e487b71000000000000000000000000000000000000000000000000000000005f52602160045260245ffd5b6020810160048310611db4577f4e487b71000000000000000000000000000000000000000000000000000000005f52602160045260245ffd5b91905290565b5f5f83601f840112611dca575f5ffd5b50813567ffffffffffffffff811115611de1575f5ffd5b6020830191508360208260051b8501011115611a87575f5ffd5b5f5f5f5f5f5f5f5f5f60c08a8c031215611e13575f5ffd5b893567ffffffffffffffff811115611e29575f5ffd5b611e358c828d01611dba565b909a5098505060208a013567ffffffffffffffff811115611e54575f5ffd5b611e608c828d01611dba565b90985096505060408a013567ffffffffffffffff811115611e7f575f5ffd5b611e8b8c828d01611dba565b9a9d999c50979a969997986060880135976080810135975060a0013595509350505050565b5f5f5f5f5f5f5f5f60a0898b031215611ec7575f5ffd5b883567ffffffffffffffff811115611edd575f5ffd5b611ee98b828c01611dba565b909950975050602089013567ffffffffffffffff811115611f08575f5ffd5b611f148b828c01611dba565b909750955050604089013567ffffffffffffffff811115611f33575f5ffd5b611f3f8b828c01611dba565b999c989b509699959896976060870135966080013595509350505050565b5f67ffffffffffffffff821115611f7657611f76611bba565b5060051b60200190565b5f82601f830112611f8f575f5ffd5b8135611fa2611f9d82611f5d565b611be7565b8082825260208201915060208360051b860101925085831115611fc3575f5ffd5b602085015b83811015611fe0578035835260209283019201611fc8565b5095945050505050565b5f5f5f5f5f60a08688031215611ffe575f5ffd5b61200786611a21565b945061201560208701611a21565b9350604086013567ffffffffffffffff811115612030575f5ffd5b61203c88828901611f80565b935050606086013567ffffffffffffffff811115612058575f5ffd5b61206488828901611f80565b925050608086013567ffffffffffffffff811115612080575f5ffd5b61208c88828901611c36565b9150509295509295909350565b5f82601f8301126120a8575f5ffd5b81356120b6611f9d82611f5d565b8082825260208201915060208360051b8601019250858311156120d7575f5ffd5b602085015b83811015611fe0576120ed81611a21565b8352602092830192016120dc565b5f5f5f5f6080858703121561210e575f5ffd5b84359350602085013567ffffffffffffffff81111561212b575f5ffd5b61213787828801612099565b935050604085013567ffffffffffffffff811115612153575f5ffd5b61215f87828801612099565b92505061216e60608601611a21565b905092959194509250565b5f5f5f5f5f60a0868803121561218d575f5ffd5b61219686611a21565b94506121a460208701611a21565b93506040860135925060608601359150608086013567ffffffffffffffff811115612080575f5ffd5b81835281816020850137505f602082840101525f60207fffffffffffffffffffffffffffffffffffffffffffffffffffffffffffffffe0601f840116840101905092915050565b73ffffffffffffffffffffffffffffffffffffffff8716815285602082015260a060408201525f61224960a0830186886121cd565b60608301949094525060800152949350505050565b73ffffffffffffffffffffffffffffffffffffffff85168152836020820152606060408201525f6122936060830184866121cd565b9695505050505050565b7f4e487b71000000000000000000000000000000000000000000000000000000005f52603260045260245ffd5b5f602082840312156122da575f5ffd5b610a0182611a21565b5f5f83357fffffffffffffffffffffffffffffffffffffffffffffffffffffffffffffffe1843603018112612316575f5ffd5b83018035915067ffffffffffffffff821115612330575f5ffd5b602001915036819003821315611a87575f5ffd5b5f8383855260208501945060208460051b820101835f5b86811015612408577fffffffffffffffffffffffffffffffffffffffffffffffffffffffffffffffe084840301885281357fffffffffffffffffffffffffffffffffffffffffffffffffffffffffffffffe18736030181126123bb575f5ffd5b860160208101903567ffffffffffffffff8111156123d7575f5ffd5b8036038213156123e5575f5ffd5b6123f08582846121cd565b60209a8b019a9095509390930192505060010161235b565b50909695505050505050565b60a080825281018890525f8960c08301825b8b8110156124615773ffffffffffffffffffffffffffffffffffffffff61244c84611a21565b16825260209283019290910190600101612426565b5083810360208501528881527f07ffffffffffffffffffffffffffffffffffffffffffffffffffffffffffffff891115612499575f5ffd5b8860051b9150818a602083013701828103602090810160408501526124c19082018789612344565b60608401959095525050608001529695505050505050565b808201808211156107d0577f4e487b71000000000000000000000000000000000000000000000000000000005f52601160045260245ffd5b818382375f910190815291905056fea2646970667358221220a6f447a6a524c9a57bcee1f57d33a032b756fab303367b23b92e65a1762277ff64736f6c634300081c0033",
  "linkReferences": {},
  "deployedLinkReferences": {}
}